:200000002CC0FECFFDCFFCCFFBCFFACFF9CFF8CFF7CFF6CFF5CFF4CFF3CFF2CFF1CFF0CF5A
:20002000EFCFEECFEDCF6400C80090012003F8FFFCFFFEFFFFFFC0F9A4B0999282F88090FA
:2000400001002D4E414E00494E4600000A00890036000100930040000000F894EE27ECBBD3
:20006000E5BFF8E1A4B7A77FA4BFF1BDE1BD8DE0A2E0ED938A95E9F780E8A0E6ED938A95D8
:20008000E9F7ECE4F0E085919591009761F0A591B59105901590BF01F00105900D92019789
:2000A000E1F7FB01F0CFE0E0E3BBE4BBE5BBEFEDEDBFC0E800C02497E0E0E883E983EA8361
:2000C000EB8315E020E030E040E050E0E0E8E6BDE0E0E6BDEBBBEABBEFEFE8BBE7BBE0E061
:2000E000E2BBEFEFE1BBE0E0E0BFE3BFE2BFE6BFECBFEFBDEEBDEDBDECBDE5BDE4BDEBBD62
:20010000EABDE9BDE8BDEBBFE5BFE9BFEDB9EAB9E0E8E8B9E0E0E1B9DAD01E2F9298A0E04A
:2001200074D06AD19F01293EE3E03E0744F0E0E0F0E1E21BF30B9F01F901F5D19F0133231B
:200140001AF4949A959802C09498959AD901EAE0F0E012D2DF0192D0AF01D901EAE0F0E05B
:2001600013D2DF018BD0EA83FB83A881B981EAEFF0E007D2309781F0919A9098A9E8A40FC0
:20018000EC9186D0909A9198EA81E757E08180D0EFEFE8BB81D0E9CF7FD0C0CFFFCFAA936C
:2001A0001A9395D0E03011F4E0E065C0E981E03061F0A5E5D2D010E0A981ED91A983AE2F9B
:2001C000CCD01F5F1830C0F302C0ACECC6D0E1E052C0AA93FCD1AA81E2DFE03011F4E0E07C
:2001E00011C0AEEBBAD010E000E80F930F5FB0D0AF91EC931F5F1930C0F3E0E8EA93A9E09C
:20020000B6D0A2D1E7D123960895AA931A93A981E0DFE03011F446D02EC0E0918400E2957F
:20022000EF70E695E3701E2FA981B9DFE03011F439D021C0A4E491D0E12FA6E2B0E037D06B
:20024000C3D13BD0A981C5DFE03011F42BD013C03ED0E12FAEE2B0E02AD0B2D1A0918000E2
:20026000B0918100EA23FB236AD1FDD0A0E0B0E080E89DE326D1188122960895BA93AA9322
:20028000E991F99130971AF4E095F09531960895E8BBAAE0B0E011C0E881F9813196E88384
:2002A000F9830895E0E0FCE36CE176EC0895F0E0EE0FFF1FEA0FFB1F0895109639F080ED63
:2002C00097E00197F1F7A8951197C9F70895EE27D898D09A80EC93E00197F1F7D09885E2C8
:2002E0008A95F1F7C89B08958BEC8A95F1F7C89BE1E08CE093E00197F1F70895D09A85E08A
:200300008A95F1F7D0988DE18A95F1F78894C8990894E79585ED8A95F1F70895E894D09A68
:2003200085E08A95F1F770FDD09883E28A95F1F7C89903C070FF03C0089570FF089588EC9D
:200340008A95F1F7D0988DE08A95F1F76894089568E0D4DF6A95E9F708957A2F68E0EE27A4
:20036000DDDF26F477956A95D9F7E3950895EE27AA2389F08A2F68E1A881BB2798E0FD9149
:200380007F2F7E27779508F4E627E795F6959A95B9F78A9599F721960895552342F45038D6
:2003A00011F4E0FF04C03196691F791F6BF050E8572711F45F9373C05F3F31F0660F000C33
:2003C00057956795752F08955F9300200AF073C06CC050E8192E1522880F991F9527550F64
:2003E000879550E8072E0522660F771F7527550F67950895689401C0E8945F93F2DF703805
:2004000018F07F3F08F44BC056E1571BAAF4519558300EF4593030F0EFEFFFEF6FEF7FE71F
:2004200077F91AC077275523B9F0EE0FFF1F661F771F5A95D1F710C07727583028F0EF2F9A
:20044000F62F672F5850F9CF552331F076956795F795E7955A95D1F700200AF468D05F91CC
:200460000895689401C0E894309760407040B1F0002426F0772312F4009459D0172E7EE1B3
:20048000112032F07A95EE0FFF1F661F111CF9CFEF2FF62F612D5F938ADF5F910895EE2797
:2004A000FF27662777275F910895EFEFFFEF6FE77FEF5F910895EFEFFFEF6FE77FE75F91C9
:2004C00008955F9386DF703851F3903841F301240894791F23F41CF300203AF3ECCF3F93E7
:2004E0004F93112433274427552798E1330F441F551FEE1FFF1F661F30F43A0F4B1F581F14
:20050000E11DF11D611D9A9589F74F913F9166232AF0550FEE1FFF1F661F02C07395E3F29C
:200520003CDF5F910895F195E195F0400895F09560957095E195FF4F6F4F7F4F08956F2F40
:20054000660F660B762F0895EE23E1E009F0EE2708950024112490E1AA0FBB1F001C111C50
:200560000E1A1F0A18F40E0E1F1E01C0A1609A9599F7FD01D001089515D0EBDF0EF4D3DF75
:200580000895E7DFFD010895E894B7FF04C0A095B09511966894F7FDC6DFDBDFFD010EF4F7
:2005A000C2DF0895E894F7FF02C0BDDF6894B7FF06C0A095B095119600F8039400FA08956E
:1A05C0000590F491E02D0895A591B49108951A930A9308951981088108959E
:00000001FF
