:1000000028C0FECFFDCFFCCFFBCFFACFF2C0F8CF98
:10001000F7CFF6CFF5CFF4CFF3CFF2CFF1CFF0CFCC
:10002000EFCFEECFEDCF6400C80090012003F8FFC2
:10003000FCFFFEFFFFFF3F069B8FA6ADBD07BFAFD6
:10004000B7BC399EB9B180A30094B8010800FEFD89
:10005000FB00F894EE27ECBBE5BFF8E1A4B7A77F5F
:10006000A4BFF1BDE1BD8DE0A2E0ED938A95E9F773
:1000700080E8A0E6ED938A95E9F7E0E0E3BBE4BB16
:10008000E5BBEFEDEDBFC0E813C1AA931A9376D19B
:10009000E03011F4E0E068C0E981E03081F0F894EC
:1000A000A5E5B2D1789410E0F894A981ED91A983E7
:1000B000AE2FAAD178941F5F1830B0F304C0F89423
:1000C000ACECA2D17894E1E04FC0AA9397D2AA8178
:1000D000DCDFE03011F4E0E015C0F894AEEB94D131
:1000E000789410E000E8F8940F930F5F88D1AF91F7
:1000F000EC9378941F5F1930B0F3E0E8EA93A9E03D
:10010000FCD126D282D223960895AA931A93A9816C
:10011000BCDFE03019F4E1EFF8ED26C0E091840097
:10012000E295EF70E695E3701E2FF894A4E46CD18D
:100130007894E12FA6E2B0E00CD152D215D1A9817A
:10014000C4DFE03019F4E1EFF8ED0EC0F89416D1F9
:100150007894E12FAEE2B0E0FCD03ED2A0918000D6
:10016000B0918100EA23FB23188122960895AA9377
:10017000289740D2E0E0EE83EF83E887E987AE85F9
:10018000C4DF8F01E1EFF8EDE017F10721F1E1E0C5
:10019000EE839801112332F4EF83F901E095F09595
:1001A00031969F01F901EF70F070CBD1E887F9012A
:1001B000C6D19F01E0E0E98750E0583060F420FFAD
:1001C00006C0E52FA1E0B3D1A985EA0FE9873695EE
:1001D00027955F5FF2CFEC2FEA5FAC2FA65F84E03C
:1001E00002D2EC2FE65F84E01FB6F8940AD22F9675
:1001F00008950A92AA93EA93FA93EFB7EA93E2B3C7
:10020000E760E2BBE0E0E8BBA1EBA20DEC91F0E01F
:10021000EA5CFF4F049008BAE1E0E21509F4C69ADF
:10022000E2B3AE2FE22DF0E0E25BFF4FE491EA2370
:10023000E2BB2394E2E0E21508F42224989B02C07A
:10024000959801C0959A989902C0949801C0949A83
:10025000E991EFBFF991E991A991099018951A9345
:10026000E0918A00E03011F4989801C0989AA0912A
:100270008C00B0E0EAE0F0E08ED11E2F113010F0DB
:10028000E12F01C0E2E1E093B100A0918C00BB2717
:10029000EAE0F0E085D1E093B200E0918B00E0303D
:1002A00011F0E5E001C0E0E0E093B300199108959A
:1002B000E0E0EBBBEABBE8BBEFEFE7BBE0E0E2BBB3
:1002C000EFEFE1BBE0E0E0BFE3E0E3BFE0E0E2BF8F
:1002D000E6BFECBFEFBDEEBDEDBDECBDE5BDE4BDE1
:1002E000EBBDEABDE9BDE8BDEBBFE5BFE2E0E9BFBC
:1002F000E0E0EDB9E0E8E8B941D0E0EFEA93ADE83D
:100300008DD03E2E7894E0E03E1640F010E01315BC
:1003100028F4E12F24D0F9DE1F5FF9CFEFE0E0935E
:10032000B100E2E1E093B200E3EB3082E1E03E169F
:1003300070F0E52D14D01BDFA9E855D11FBE8FDF6B
:100340005394531408F05524A4EFB1E00DD0EECF30
:10035000FFCFF0E0EE0FFF1FEA0FFB1F0895A9E0AB
:10036000FCD0E357AE2F0895109639F080ED97E05A
:100370000197F1F7A8951197C9F70895EE27D89836
:10038000D09A80EC93E00197F1F7D09885E28A95B6
:10039000F1F7C89B08958BEC8A95F1F7C89BE1E0D3
:1003A0008CE093E00197F1F70895D09A85E08A9563
:1003B000F1F7D0988DE18A95F1F78894C89908945F
:1003C000E79585ED8A95F1F70895E894D09A85E050
:1003D0008A95F1F770FDD09883E28A95F1F7C89974
:1003E00003C070FF03C0089570FF089588EC8A95DC
:1003F000F1F7D0988DE08A95F1F76894089568E058
:10040000D4DF6A95E9F708957A2F68E0EE27DDDFFB
:1004100026F477956A95D9F7E39508954F935F93FE
:1004200011244427BB27012C1124A8DFEE2301F15E
:10043000AF93A881E9DFAF9151E0501598F4B5DF93
:10044000E7FD08C0B2DFE7FD06C03FD0892319F4FD
:10045000152E01C0AADF39D0892370E009F071E0C0
:10046000B4DF1EC0A2DFE7FF0BC09FDFE7FF05C0C0
:10047000E42F5F914F9121960895689436D0EFCF85
:1004800094DFE7FF01C003C0501531F0152EE8944A
:100490002CD077279ADF04C0689427D071E095DFCD
:1004A0005395513454F281DFEE1FEE1FE170189620
:1004B000EC93189743951120D9F259E0EC911996D5
:1004C000EC9318975A95D1F7AECFE52FEA956E2F9A
:1004D000E695E695E695EA0FFF27808191E0677043
:1004E00019F0990F6A95FCCF0895EFDF1EF09095F3
:1004F000892301C0892B80830895EE27AA2389F0E0
:100500008A2F68E1A881BB2798E0FD917F2F7E2785
:10051000779508F4E627E795F6959A95B9F78A95C1
:1005200099F721960895F195E195F0400895EE230D
:100530000E2EEA2F19F0EE0F0A94E9F70895F695BA
:10054000E795F695E795F695E795F695E79508957D
:10055000EE23E1E009F0EE2708950A2EAA1BB9E088
:1005600003C008F4A00DA695E795BA95D1F70895B4
:100570000024112490E1AA0FBB1F001C111C0E1AAD
:100580001F0A18F40E0E1F1E01C0A1609A9599F75C
:10059000FD01D001089512D0EBDF0EF4C4DF089501
:1005A000E894B7FF04C0A095B09511966894F7FD44
:1005B000BADFDEDFFD010EF4B6DF0895E894F7FF41
:1005C00002C0B1DF6894B7FF06C0A095B095119640
:1005D00000F8039400FA08950590F491E02D089531
:1005E000A591B4910895EF9361916D938A95E1F788
:1005F000EF9108955A934A933A932A931A930A9340
:1006000008955D814C813B812A811981088108957B
:00000001FF
